:100000000C945D000C9485000C9485000C94850084
:100010000C9485000C9485000C9485000C9485004C
:100020000C9485000C9485000C9485000C9485003C
:100030000C9485000C9485000C9485000C9485002C
:100040000C9462050C9485000C9430050C940A0500
:100050000C9485000C9485000C9485000C9485000C
:100060000C94AC050C94850000000008000201000F
:100070000003040700000000000000000000000072
:10008000250028002B0000000000240027002A0083
:10009000040404040404040402020202020203032E
:1000A0000303030301020408102040800102040836
:1000B0001020010204081020CB0611241FBECFEF30
:1000C000D8E0DEBFCDBF11E0A0E0B1E0ECEAF7E19F
:1000D00002C005900D92A838B107D9F723E0A8E82F
:1000E000B1E001C01D92A130B207E1F710E0CDE50B
:1000F000D0E004C02197FE010E94CE0BCC35D10781
:10010000C9F70E9414070C94D40B0C9400000895B6
:100110000895AF92BF92CF92DF92EF92FF920F932A
:100120001F93CF93DF936C017B018B01040F151F8D
:10013000EB015E01AE18BF08C017D10759F06991F5
:10014000D601ED91FC910190F081E02DC601099559
:10015000892B79F7C501DF91CF911F910F91FF9006
:10016000EF90DF90CF90BF90AF900895FC01538D3A
:10017000448D252F30E0842F90E0821B930B541781
:1001800010F0CF96089501970895FC01918D828D0E
:10019000981761F0A28DAE0FBF2FB11D5D968C91A7
:1001A000928D9F5F9F73928F90E008958FEF9FEFE6
:1001B0000895FC01918D828D981731F0828DE80FA2
:1001C000F11D858D90E008958FEF9FEF0895FC015C
:1001D000918D228D892F90E0805C9F4F821B910929
:1001E0008F73992708958BE492E00E94E70021E045
:1001F000892B09F420E0822F089580E090E0892B7C
:1002000029F00E94F30081110C9400000895FC0174
:10021000A48DA80FB92FB11DA35ABF4F2C91848D67
:1002200090E001968F739927848FA689B7892C93C4
:10023000A089B1898C91837080648C93938D848D17
:10024000981306C00288F389E02D80818F7D80831A
:100250000895EF92FF920F931F93CF93DF93EC01DA
:1002600081E0888F9B8D8C8D98131AC0E889F9895D
:10027000808185FF15C09FB7F894EE89FF89608360
:10028000E889F98980818370806480839FBF81E0E1
:1002900090E0DF91CF911F910F91FF90EF90089523
:1002A000F62E0B8D10E00F5F1F4F0F731127E02EFE
:1002B0008C8D8E110CC00FB607FCFACFE889F98936
:1002C000808185FFF5CFCE010E940701F1CFEB8D34
:1002D000EC0FFD2FF11DE35AFF4FF0829FB7F8940A
:1002E0000B8FEA89FB8980818062CFCFCF93DF9328
:1002F000EC01888D8823B9F0AA89BB89E889F9893E
:100300008C9185FD03C0808186FD0DC00FB607FC72
:10031000F7CF8C9185FFF2CF808185FFEDCFCE01A5
:100320000E940701E9CFDF91CF91089590E0FC0191
:10033000E859FF4F2491FC01EC55FF4F3491FC012B
:10034000E057FF4FE491EE23C9F0222339F0233028
:1003500001F1A8F4213019F1223029F1F0E0EE0F7B
:10036000FF1FE458FF4FA591B4918FB7F894EC911B
:10037000611126C030953E233C938FBF08952730EE
:10038000A9F02830C9F0243049F7809180008F7D92
:1003900003C0809180008F7780938000DFCF84B589
:1003A0008F7784BDDBCF84B58F7DFBCF8091B0008C
:1003B0008F778093B000D2CF8091B0008F7DF9CF3E
:1003C0003E2BDACF3FB7F89480913F0290914002E4
:1003D000A0914102B091420226B5A89B05C02F3FD3
:1003E00019F00196A11DB11D3FBFBA2FA92F982F5B
:1003F0008827BC01CD01620F711D811D911D42E056
:10040000660F771F881F991F4A95D1F708958F921D
:100410009F92AF92BF92CF92DF92EF92FF924B01E9
:100420005C010E94E2016B017C010E94E2016C19F7
:100430007D098E099F09683E734081059105A8F3E7
:1004400021E0821A9108A108B10888EEC80E83E065
:10045000D81EE11CF11C81149104A104B10429F7F8
:10046000FF90EF90DF90CF90BF90AF909F908F90D4
:10047000089508952091C901260F3327331F213293
:100480003105ECF420911202FC0190E080E0243070
:1004900069F082E00895A091C9012191AC0147550E
:1004A0005E4FA40FB52FB11D2C930196861798F3BC
:1004B0008091C901680F6093C90180E0089581E0CF
:1004C00008951092120281E0809311021092EC01C3
:1004D00061E082E10E94960161E083E10E94960161
:1004E000E9EBF0E080818E7F808380818D7F808347
:1004F00088E48093B80085E48093BC000895CF938E
:10050000DF9391E09093A8018823B9F0C091B800DF
:10051000D091BA008091BC008A7B8093BC0060E0DF
:1005200082E10E94960160E083E10E9496010E94B0
:100530006102D093BA00C093B800DF91CF910895C3
:100540000895E0914A0280914902E81730F4F0E002
:10055000E857FE4F808190E008958FEF9FEF089558
:1005600090914A02809149022FEF3FEF981748F48B
:10057000E92FF0E0E857FE4F208130E09F5F909335
:100580004A02C90108958091490290914A02891B4B
:10059000990B0895CF92DF92EF92FF920F931F93E2
:1005A000CF93DF937C01CB018A0120911802222393
:1005B00089F0EB016B01C40ED51ECC15DD0569F089
:1005C0006991D701ED91FC910190F081E02DC70177
:1005D0000995F3CF642F0E943A02C801DF91CF91B1
:1005E0001F910F91FF90EF90DF90CF900895CF93E0
:1005F000DF931F92CDB7DEB76983209118022223C3
:10060000F9F020914702203258F021E030E0FC015F
:100610003383228390E080E00F90DF91CF910895A3
:1006200080914802E82FF0E0E75EFD4F99819083CA
:100630008F5F809348028093470281E090E0ECCF87
:1006400061E0CE0101960E943A02F7CFCF92DF928D
:10065000EF92FF920F931F93CF93DF93FC01C4811E
:1006600021E020931802C0933902109248021092A0
:1006700047028485682B88EE92E00E94F702D091B1
:100680004702D13208F092C00E94E2016B017C0166
:1006900080911202811165C082E08093120281E094
:1006A000809311028FEF8093100210920F02D0936B
:1006B0000E02A9E1B2E0EEEEF1E080E0D81385C0D1
:1006C0001092ED018091ED01CC0FC82BC093ED018C
:1006D0008091EC01813009F07CC01092EC010E9405
:1006E000E2016B017C018091ED018093BB00809160
:1006F000140290911502A0911602B0911702892B55
:100700008A2B8B2B99F00E94E20100911402109128
:10071000150220911602309117026C197D098E097D
:100720009F090617170728073907E0F18091BC00D9
:1007300083FDD9CF85EC8093BC000E94E2016B0160
:100740007C0180911202823009F445C08091100230
:100750008F3F61F180911002803241F1809110024F
:1007600025C08091140290911502A0911602B091BB
:100770001702892B8A2B8B2B09F48ACF0E94E20166
:100780000091140210911502209116023091170267
:100790006C197D098E099F09061717072807390765
:1007A00008F076CF809113020E947F0210924802D7
:1007B0001092470210921802DF91CF911F910F9172
:1007C000FF90EF90DF90CF9008959D9191938F5F70
:1007D00075CF85EEB0CF8091140290911502A09153
:1007E0001602B0911702892B8A2B8B2B09F4A9CF03
:1007F0000E94E2010091140210911502209116024C
:10080000309117026C197D098E099F090617170789
:100810002807390708F095CFC5CF90E080E008950C
:100820000F931F93CF938C01C62F0E9426036C2F2A
:100830006460C8010E9426036C2F6B7FC8010E9470
:10084000260383EC90E00197F1F7CF911F910F9170
:1008500008950F931F93CF93DF938C01D62FC42F4E
:10086000607F642B0E94100480E1D89FB0011124A6
:100870006C2BC801DF91CF911F910F910C94100444
:10088000CF93DF93CDB7DEB728970FB6F894DEBFCE
:100890000FBECDBF98E0E0E0F1E0DE0111960190DF
:1008A0000D929A95E1F79091FC02981708F48FEF5A
:1008B00090E0880F991F21E030E02C0F3D1F820F40
:1008C000931FFC016081606840E084EF92E028960D
:1008D0000FB6F894DEBF0FBECDBFDF91CF910C9461
:1008E000290441E00E94290481E090E00895FB0181
:1008F00001900020E9F73197AF01461B570BDC014F
:10090000ED91FC910280F381E02D09948F929F92EA
:10091000AF92BF92EF92FF920F931F93CF93DF930B
:10092000CDB7DEB7A1970FB6F894DEBF0FBECDBF2F
:100930007C01FA01CB0119A2223008F42AE08E01D1
:100940000F5D1F4F822E912CB12CA12CBF01A50150
:1009500094010E94AC0BF901CA016A300CF5605D8C
:10096000D8016E938D01232B242B252B79F790E052
:1009700080E0109721F0BD01C7010E947704A19685
:100980000FB6F894DEBF0FBECDBFDF91CF911F91A0
:100990000F91FF90EF90BF90AF909F908F90089530
:1009A000695CDECF85ED8093BC008091140290914C
:1009B0001502A0911602B09117020796A11DB11D54
:1009C00023E0B695A795979587952A95D1F720911D
:1009D000BC0024FD03C0109212020895409114023D
:1009E000509115026091160270911702452B462B0B
:1009F000472B69F30097A105B10541F02AE22A953A
:100A0000F1F700C00197A109B109E1CF809113026C
:100A10000C947F021F920F920FB60F9211242F9306
:100A20003F934F935F936F937F938F939F93AF9376
:100A3000BF93EF93FF938BE492E00E940701FF9135
:100A4000EF91BF91AF919F918F917F916F915F9146
:100A50004F913F912F910F900FBE0F901F901895BF
:100A60001F920F920FB60F9211242F938F939F9383
:100A7000EF93FF93E0915B02F0915C028081E09143
:100A80006102F091620282FD1BC09081809164023C
:100A90008F5F8F7320916502821741F0E0916402AD
:100AA000F0E0E55BFD4F958F80936402FF91EF913D
:100AB0009F918F912F910F900FBE0F901F901895BF
:100AC0008081F4CF1F920F920FB60F9211242F93B3
:100AD0003F938F939F93AF93BF9380913B029091ED
:100AE0003C02A0913D02B0913E0230913A0223E0D7
:100AF000230F2D3758F50196A11DB11D20933A0201
:100B000080933B0290933C02A0933D02B0933E023F
:100B100080913F0290914002A0914102B091420227
:100B20000196A11DB11D80933F0290934002A093B6
:100B30004102B0934202BF91AF919F918F913F913B
:100B40002F910F900FBE0F901F90189526E8230F3E
:100B50000296A11DB11DD2CF1F920F920FB60F9218
:100B600011242F933F934F935F936F937F938F93B2
:100B70009F93AF93BF93EF93FF938091B900887FCA
:100B8000803609F44AC0F0F5883209F4A7C018F598
:100B9000803109F49BC0B8F4882309F4F9C0883087
:100BA00009F494C0FF91EF91BF91AF919F918F9104
:100BB0007F916F915F914F913F912F910F900FBE59
:100BC0000F901F901895883109F488C0803251F732
:100BD0008093100214C0803409F49DC040F4803327
:100BE000B9F38833F9F68093100285ECB0C08035F4
:100BF00009F485C0883509F496C0883499F60E94B6
:100C0000D204D0CF883909F48CC038F5883729F060
:100C100050F4883611F0803729F683E08093120271
:100C20001092EB0157C0883809F47BC0803919F065
:100C3000803809F0B7CF8091EB01803208F071C0A5
:100C4000E091EB0181E08E0F8093EB018091BB007E
:100C5000F0E0E553FE4F80833DC0803B39F0E0F487
:100C6000803A09F479C0883A09F09CCF84E08093F7
:100C700012021092CA011092C901E0914502F0914E
:100C8000460209958091C90181110FC081E08093CE
:100C9000C9011092A90109C0803C09F4A6CF883C83
:100CA00009F4A3CF883B09F07DCFE091CA0181E030
:100CB0008E0F8093CA01F0E0E755FE4F808180934C
:100CC000BB009091CA018091C90129C08091ED01BA
:100CD0008093BB0085EC8093BC0064CF90910F02A1
:100CE00080910E02981758F5E0910F0281E08E0F67
:100CF00080930F02F0E0E251FE4F8081E9CFE09156
:100D00000F0281E08E0F80930F028091BB00F0E014
:100D1000E251FE4F808390910F0280910E0298174E
:100D2000C8F285E8D8CFE0910F0281E08E0F809362
:100D30000F028091BB00F0E0E251FE4F8083809172
:100D4000110281115CCF81E08093EC0184EA8093F1
:100D5000BC001092120226CF85EC8093BC0010924A
:100D600012028091EB01803230F4E091EB01F0E06F
:100D7000E553FE4F10826091EB0170E0E091430279
:100D8000F09144028BEC91E009951092EB010ACFAF
:100D90001092100234CFEBE4F2E01382128288EE5C
:100DA00093E0A0E0B0E084839583A683B7832CE032
:100DB00031E03183208325EC30E03587248724EC33
:100DC00030E03787268720EC30E0318B208B21EC18
:100DD00030E0338B228B22EC30E0358B248B26ECF9
:100DE00030E0378B268B118E128E138E148EE8EE28
:100DF000F2E01382128284839583A683B7838EE107
:100E000091E091838083E4EFF2E01382128280E329
:100E100091E091838083118687E2848380E18287D9
:100E200082E0838714860895789484B5826084BDB7
:100E300084B5816084BD85B5826085BD85B58160DE
:100E400085BD80916E00816080936E00109281005C
:100E50008091810082608093810080918100816017
:100E600080938100809180008160809380008091D8
:100E7000B10084608093B1008091B0008160809364
:100E8000B00080917A00846080937A0080917A002B
:100E9000826080937A0080917A00816080937A00EA
:100EA00080917A00806880937A001092C100E0916E
:100EB0005B02F0915C0282E08083E0915702F09146
:100EC00058021082E0915902F0915A028FEC80830F
:100ED00010926302E0915F02F091600286E08083ED
:100EE000E0915D02F0915E02808180618083E091FB
:100EF0005D02F0915E02808188608083E0915D02F6
:100F0000F0915E02808180688083E0915D02F091C3
:100F10005E0280818F7D8083E2EBF0E02491EEE938
:100F2000F0E084918823C1F090E0880F991FFC01C4
:100F3000EA57FF4FC591D491FC01E458FF4FA591AA
:100F4000B4919FB7F8948881E22FE0958E2388832F
:100F50008C91E823EC939FBF10924A0210924902B1
:100F600010924802109247020E94610287E890E0C6
:100F7000909346028093450288E890E09093440263
:100F8000809343021092F9028091FF02823018F0A0
:100F900098E09093F9028093FC0262E370E080E0B5
:100FA00090E00E9407026091000384EF92E00E94AB
:100FB000260368EE73E080E090E00E94070260E3A1
:100FC00084EF92E00E941004CBE4D6E4CE010197B6
:100FD000F1F760E384EF92E00E9410042197F1F7AB
:100FE00060E384EF92E00E94100483E592E00197B1
:100FF000F1F760E284EF92E00E9410046091F90240
:10100000606240E084EF92E00E94290484E08093D3
:10101000FA0240E06CE084EF92E00E94290440E094
:1010200061E084EF92E00E9429048BE39FE1019745
:10103000F1F78091FD02882319F080E00E944004BE
:1010400082E08093FB0240E066E084EF92E00E9441
:10105000290440E062E084EF92E00E9429048BE3DF
:101060009FE10197F1F788E08093000360E084EF4F
:1010700092E00E94260300E415E0C0E0D0E080E0AA
:101080000E94400468E371E084EF92E00E947704DC
:1010900000937C0080917A00806480937A00809134
:1010A0007A0086FDFCCFE0907800F0907900E114A2
:1010B000F10409F401C11E9DB0011F9D700D1124A2
:1010C000072E000C880B990B0E94850A20E030E067
:1010D00040E85AE30E943A0B9B01AC0160E070E0EB
:1010E00080EA90E40E94DB0920E030E040E85FE322
:1010F0000E94690920E030E44CE156E40E943A0B7A
:1011000020E030E040EA51E40E9469096B017C0173
:1011100067E471E08BE492E00E947704A7019601F6
:10112000C701B6010E94A70B64E571E081111AC0E6
:1011300046015701E894B7F82FEF3FEF4FE75FE71D
:10114000C501B4010E94A70B811138C02FEF3FEFFA
:101150004FE75FE7C501B4010E94D609181674F580
:1011600068E571E08BE492E00E94770460E671E04C
:101170008BE492E00E947704C701B6010E944D0AF9
:101180007B0181E00E944004A701FF0C660B770BF6
:101190002AE084EF92E00E94860468E771E084EF21
:1011A00092E00E947704209709F469CF0E94F3002F
:1011B000882309F464CF0E94000061CF2FEF3FEF36
:1011C0004FE75FE4C701B6010E94350B18161CF407
:1011D0006CE571E0C7CF2FEF3FEF4FE75FECC70142
:1011E000B6010E94D60987FDF3CF20E030E0A901C7
:1011F000C701B6010E94D60987FF5BC06DE28BE490
:1012000092E00E942901C701B60190582AE037ED0B
:1012100043EA5BE30E946A092B013C010E94540AE5
:101220004B015C010E94830A9B01AC01C301B20126
:101230000E9469092B013C012AE0B501A4018BE45D
:1012400092E00E9486046EE28BE492E00E94290103
:1012500020E030E040E251E4C301B2010E943A0BC9
:101260002B013C010E94540A4B01B12CA12C2AE015
:10127000B501A4018BE492E00E948604C501B4018B
:101280000E94830A9B01AC01C301B2010E9469095B
:1012900020E030E040E251E40E943A0B0E94540A00
:1012A000AB0170E060E02AE08BE492E00E948604EB
:1012B0005DCFC701B601AACF63E671E08BE492E08F
:1012C0000E94770460E671E08BE492E00E9477046C
:1012D00058CF5058BB27AA270E9481090C94FB0ABB
:1012E0000E94ED0A38F00E94F40A20F039F49F3F82
:1012F00019F426F40C94EA0A0EF4E095E7FB0C943A
:10130000E40AE92F0E940C0B58F3BA17620773071F
:101310008407950720F079F4A6F50C942E0B0EF4B3
:10132000E0950B2EBA2FA02D0B01B90190010C01F5
:10133000CA01A0011124FF27591B99F0593F50F40D
:10134000503E68F11A16F040A22F232F342F442765
:10135000585FF3CF469537952795A795F04053955D
:10136000C9F77EF41F16BA0B620B730B840BBAF02D
:101370009150A1F0FF0FBB1F661F771F881FC2F798
:101380000EC0BA0F621F731F841F48F487957795AC
:101390006795B795F7959E3F08F0B0CF9395880F66
:1013A00008F09927EE0F9795879508950E94C00A37
:1013B00008F481E008950E94EF090C94FB0A0E9452
:1013C000F40A58F00E94ED0A40F029F45F3F29F03A
:1013D0000C94E40A51110C942F0B0C94EA0A0E940D
:1013E0000C0B68F39923B1F3552391F3951B550B1F
:1013F000BB27AA2762177307840738F09F5F5F4FE8
:10140000220F331F441FAA1FA9F335D00E2E3AF026
:10141000E0E832D091505040E695001CCAF72BD03E
:10142000FE2F29D0660F771F881FBB1F261737078F
:101430004807AB07B0E809F0BB0B802DBF01FF27C1
:1014400093585F4F3AF09E3F510578F00C94E40AB0
:101450000C942F0B5F3FE4F3983ED4F38695779579
:101460006795B795F7959F5FC9F7880F911D96957A
:10147000879597F90895E1E0660F771F881FBB1FD6
:10148000621773078407BA0720F0621B730B840B83
:10149000BA0BEE1F88F7E09508950E94540A6894ED
:1014A000B1110C942F0B08950E94140B88F09F57D4
:1014B00098F0B92F9927B751B0F0E1F0660F771F78
:1014C000881F991F1AF0BA95C9F714C0B13091F06E
:1014D0000E942E0BB1E008950C942E0B672F782FED
:1014E0008827B85F39F0B93FCCF386957795679533
:1014F000B395D9F73EF490958095709561957F4F9F
:101500008F4F9F4F0895E89409C097FB3EF4909544
:101510008095709561957F4F8F4F9F4F9923A9F0CC
:10152000F92F96E9BB279395F6958795779567955B
:10153000B795F111F8CFFAF4BB0F11F460FF1BC09F
:101540006F5F7F4F8F4F9F4F16C0882311F096E932
:1015500011C0772321F09EE8872F762F05C06623E0
:1015600071F096E8862F70E060E02AF09A95660F99
:10157000771F881FDAF7880F9695879597F9089552
:10158000990F0008550FAA0BE0E8FEEF1616170694
:10159000E807F907C0F012161306E407F50798F0FC
:1015A000621B730B840B950B39F40A2661F0232B15
:1015B000242B252B21F408950A2609F4A140A69591
:1015C0008FEF811D811D089597F99F6780E870E076
:1015D00060E008959FEF80EC089500240A941616A9
:1015E000170618060906089500240A941216130611
:1015F000140605060895092E0394000C11F488239F
:1016000052F0BB0F40F4BF2B11F460FF04C06F5FBA
:101610007F4F8F4F9F4F089557FD9058440F551F90
:1016200059F05F3F71F04795880F97FB991F61F064
:101630009F3F79F087950895121613061406551FDB
:10164000F2CF4695F1DF08C0161617061806991F47
:10165000F1CF86957105610508940895E894BB273C
:1016600066277727CB0197F908950E94C00A08F4EE
:101670008FEF08950E944D0B0C94FB0A0E94ED0A17
:1016800038F00E94F40A20F0952311F00C94E40A3B
:101690000C94EA0A11240C942F0B0E940C0B70F38B
:1016A000959FC1F3950F50E0551F629FF001729F07
:1016B000BB27F00DB11D639FAA27F00DB11DAA1F16
:1016C000649F6627B00DA11D661F829F2227B00D63
:1016D000A11D621F739FB00DA11D621F839FA00DEE
:1016E000611D221F749F3327A00D611D231F849F3E
:1016F000600D211D822F762F6A2F11249F57504095
:101700009AF0F1F088234AF0EE0FFF1FBB1F661F0F
:10171000771F881F91505040A9F79E3F510580F0D8
:101720000C94E40A0C942F0B5F3FE4F3983ED4F33F
:10173000869577956795B795F795E7959F5FC1F77C
:10174000FE2B880F911D9695879597F908950E9415
:10175000C00A880B990B0895A1E21A2EAA1BBB1B85
:10176000FD010DC0AA1FBB1FEE1FFF1FA217B3076D
:10177000E407F50720F0A21BB30BE40BF50B661F83
:10178000771F881F991F1A9469F760957095809547
:1017900090959B01AC01BD01CF010895EE0FFF1F95
:0C17A0000590F491E02D0994F894FFCF1F
:1017AC0000004000140054000000000029018900D2
:1017BC00B6007601E700C500D90000000000F70272
:1017CC00CA020D04A002C302B002A1020000000074
:1017DC00710489000D043902526573697374656E66
:1017EC00636961203A2900526573697374616E6391
:1017FC0069613A006E616E00696E66006F76660014
:10180C000D0A00204E6F2068617920726573697330
:10181C0074656E6369612000206F686D2020202044
:08182C002020202020200000F4
:00000001FF
