:100000000C945D000C94FA020C94D3020C948500BD
:100010000C9485000C9485000C9485000C9485004C
:100020000C9485000C9485000C9485000C9485003C
:100030000C9485000C9485000C9485000C9485002C
:100040000C9431020C9485000C94A1020C947B0258
:100050000C9485000C9485000C9485000C9485000C
:100060000C9485000C9485000000000024002700FB
:100070002A0000000000250028002B0004040404CE
:100080000404040402020202020203030303030342
:10009000010204081020408001020408102001021F
:1000A00004081020000000080002010000030407FB
:1000B00000000000000000007A1011241FBECFEFE6
:1000C000D8E0DEBFCDBF11E0A0E0B1E0E2EAF1E2AE
:1000D00002C005900D92AA31B107D9F721E0AAE13B
:1000E000B1E001C01D92A23CB207E1F710E0CDE5FE
:1000F000D0E004C02197FE010E94C910CC35D10781
:10010000C9F70E9421030C94CF100C94000081E0E9
:100110008093B8018091B7018F5F8093B701809180
:10012000B701833310F01092B701089581E08093F6
:10013000B8018091B70181508093B7018091B701D8
:100140008F3F19F482E38093B7010895AF92BF9275
:10015000CF92DF92EF92FF920F931F93CF93DF9393
:100160006C017B018B01040F151FEB015E01AE18C2
:10017000BF08C017D10759F06991D601ED91FC91E4
:100180000190F081E02DC6010995892B79F7C50111
:10019000DF91CF911F910F91FF90EF90DF90CF9063
:1001A000BF90AF900895FC01538D448D252F30E012
:1001B000842F90E0821B930B541710F0CF96089574
:1001C00001970895FC01918D828D981761F0A28DA1
:1001D000AE0FBF2FB11D5D968C91928D9F5F9F7367
:1001E000928F90E008958FEF9FEF0895FC01918D1D
:1001F000828D981731F0828DE80FF11D858D90E08A
:1002000008958FEF9FEF0895FC01918D228D892F26
:1002100090E0805C9F4F821B91098F73992708950E
:100220008AE191E00E94040121E0892B09F420E099
:10023000822F089580E090E0892B29F00E94100120
:1002400081110C9400000895FC01A48DA80FB92F12
:10025000B11DA35ABF4F2C91848D90E001968F73EE
:100260009927848FA689B7892C93A089B1898C910D
:10027000837080648C93938D848D981306C002885C
:10028000F389E02D80818F7D80830895EF92FF9226
:100290000F931F93CF93DF93EC0181E0888F9B8DA9
:1002A0008C8D98131AC0E889F989808185FF15C063
:1002B0009FB7F894EE89FF896083E889F989808186
:1002C0008370806480839FBF81E090E0DF91CF9155
:1002D0001F910F91FF90EF900895F62E0B8D10E077
:1002E0000F5F1F4F0F731127E02E8C8D8E110CC0E6
:1002F0000FB607FCFACFE889F989808185FFF5CF31
:10030000CE010E942401F1CFEB8DEC0FFD2FF11DEA
:10031000E35AFF4FF0829FB7F8940B8FEA89FB896D
:1003200080818062CFCFCF93DF93EC01888D8823CB
:10033000B9F0AA89BB89E889F9898C9185FD03C048
:10034000808186FD0DC00FB607FCF7CF8C9185FF2D
:10035000F2CF808185FFEDCFCE010E942401E9CF4D
:10036000DF91CF91089590E0FC01EC55FF4F24916F
:10037000FC01E057FF4F3491FC01E458FF4FE4913A
:10038000EE23C9F0222339F0233001F1A8F4213003
:1003900019F1223029F1F0E0EE0FFF1FEE58FF4F68
:1003A000A591B4918FB7F894EC91611126C0309566
:1003B0003E233C938FBF08952730A9F02830C9F021
:1003C000243049F7809180008F7D03C080918000A8
:1003D0008F7780938000DFCF84B58F7784BDDBCFAC
:1003E00084B58F7DFBCF8091B0008F778093B00074
:1003F000D2CF8091B0008F7DF9CF3E2BDACFCF9353
:10040000DF9390E0FC01E057FF4F249184589F4F09
:10041000FC0184918823D1F090E0880F991FFC01A2
:10042000E859FF4FA591B491FC01EE58FF4FC591DB
:10043000D49161110EC09FB7F8948C91E22FE09592
:100440008E238C932881E223E8839FBFDF91CF9195
:1004500008958FB7F894EC91E22BEC938FBFF6CF11
:1004600008951F920F920FB60F9211242F933F936E
:100470008F939F93AF93BF938091BE019091BF01E3
:10048000A091C001B091C1013091BD0123E0230FC3
:100490002D3758F50196A11DB11D2093BD01809304
:1004A000BE019093BF01A093C001B093C1018091A0
:1004B000B9019091BA01A091BB01B091BC01019624
:1004C000A11DB11D8093B9019093BA01A093BB0106
:1004D000B093BC01BF91AF919F918F913F912F91AC
:1004E0000F900FBE0F901F90189526E8230F0296CD
:1004F000A11DB11DD2CF1F920F920FB60F921124E2
:100500002F933F934F935F936F937F938F939F931B
:10051000AF93BF93EF93FF938AE191E00E94240190
:10052000FF91EF91BF91AF919F918F917F916F91CB
:100530005F914F913F912F910F900FBE0F901F90A1
:1005400018951F920F920FB60F9211242F938F932D
:100550009F93EF93FF93E0912A01F0912B0180810B
:10056000E0913001F091310182FD1BC090818091BA
:1005700033018F5F8F7320913401821741F0E09136
:100580003301F0E0E65EFE4F958F80933301FF91DB
:10059000EF919F918F912F910F900FBE0F901F9011
:1005A00018958081F4CF1F920F920FB60F921124ED
:1005B0002F933F934F935F936F937F938F939F936B
:1005C000AF93BF93EF93FF93E0910201F09103018A
:1005D0000995FF91EF91BF91AF919F918F917F917D
:1005E0006F915F914F913F912F910F900FBE0F90A0
:1005F0001F9018951F920F920FB60F9211242F93F0
:100600003F934F935F936F937F938F939F93AF939A
:10061000BF93EF93FF93E0910001F09101010995E1
:10062000FF91EF91BF91AF919F918F917F916F91CA
:100630005F914F913F912F910F900FBE0F901F90A0
:100640001895CF93DF93CDB7DEB7A1970FB6F89487
:10065000DEBF0FBECDBF789484B5826084BD84B503
:10066000816084BD85B5826085BD85B5816085BDAD
:1006700080916E00816080936E0010928100809165
:1006800081008260809381008091810081608093ED
:100690008100809180008160809380008091B10012
:1006A00084608093B1008091B00081608093B0003D
:1006B00080917A00846080937A0080917A008260D1
:1006C00080937A0080917A00816080937A00809193
:1006D0007A00806880937A001092C100E0912A012C
:1006E000F0912B0182E08083E0912601F0912701B7
:1006F0001082E0912801F09129018FEC8083109203
:100700003201E0912E01F0912F0186E08083E0918B
:100710002C01F0912D01808180618083E0912C017A
:10072000F0912D01808188608083E0912C01F0910F
:100730002D01808180688083E0912C01F0912D0152
:1007400080818F7D808361E084E00E94FF0161E011
:1007500085E00E94FF0161E086E00E94FF0161E008
:1007600087E00E94FF0161E088E00E94FF0161E0F4
:1007700089E00E94FF0161E08AE00E94FF0161E0E0
:100780008BE00E94FF0161E08CE00E94FF0161E0CC
:100790008DE00E94FF0161E08EE00E94FF0161E0B8
:1007A0008FE00E94FF0161E080E10E94FF0161E0B3
:1007B00081E10E94FF0160E082E00E94FF0160E0B1
:1007C00083E00E94FF0187E890E09093010180930D
:1007D000000180916900836080936900E89A86E94E
:1007E00090E0909303018093020180916900837FE0
:1007F000886080936900E99A8AE0882E912CA12C68
:10080000B12C90E0E92E90E0F92E8091B801882378
:1008100011F40C946B101092B8012091B70130E0E4
:1008200050E040E019A28E010F5D1F4FCA01B901CF
:10083000A50194010E94A710605DF80162938F01E9
:10084000211531054105510589F7309761F0019077
:100850000020E9F73197AF01401B510BB8018AE145
:1008600091E00E94A60042E050E066E171E08AE17A
:1008700091E00E94A6008091B701811138C061E02B
:1008800084E00E94B30161E085E00E94B30161E071
:1008900086E00E94B30161E087E00E94B30161E05D
:1008A00088E00E94B30161E089E00E94B30160E04A
:1008B0008AE00E94B30161E08BE00E94B30161E035
:1008C0008CE00E94B30161E08DE00E94B30161E021
:1008D0008EE00E94B30161E08FE00E94B30161E00D
:1008E00080E10E94B30160E081E10E94B301809148
:1008F000B7018130C1F560E084E00E94B30161E09E
:1009000085E00E94B30161E086E00E94B30160E0EF
:1009100087E00E94B30160E088E00E94B30160E0DC
:1009200089E00E94B30160E08AE00E94B30161E0C7
:100930008BE00E94B30161E08CE00E94B30161E0B2
:100940008DE00E94B30161E08EE00E94B30161E09E
:100950008FE00E94B30161E080E10E94B30160E09A
:1009600081E10E94B3018091B7018230C1F561E05D
:1009700084E00E94B30161E085E00E94B30160E081
:1009800086E00E94B30161E087E00E94B30161E06C
:1009900088E00E94B30160E089E00E94B30161E059
:1009A0008AE00E94B30161E08BE00E94B30161E044
:1009B0008CE00E94B30161E08DE00E94B30161E030
:1009C0008EE00E94B30161E08FE00E94B30161E01C
:1009D00080E10E94B30160E081E10E94B301809157
:1009E000B7018230C1F561E084E00E94B30161E0AB
:1009F00085E00E94B30160E086E00E94B30161E0FF
:100A000087E00E94B30161E088E00E94B30160E0EA
:100A100089E00E94B30161E08AE00E94B30161E0D5
:100A20008BE00E94B30161E08CE00E94B30161E0C1
:100A30008DE00E94B30161E08EE00E94B30161E0AD
:100A40008FE00E94B30161E080E10E94B30160E0A9
:100A500081E10E94B3018091B7018330C1F561E06B
:100A600084E00E94B30161E085E00E94B30161E08F
:100A700086E00E94B30161E087E00E94B30160E07C
:100A800088E00E94B30160E089E00E94B30161E068
:100A90008AE00E94B30161E08BE00E94B30161E053
:100AA0008CE00E94B30161E08DE00E94B30161E03F
:100AB0008EE00E94B30161E08FE00E94B30161E02B
:100AC00080E10E94B30160E081E10E94B301809166
:100AD000B7018430B9F560E00E94B30161E085E0C0
:100AE0000E94B30161E086E00E94B30160E087E00C
:100AF0000E94B30160E088E00E94B30161E089E0F8
:100B00000E94B30161E08AE00E94B30161E08BE0E2
:100B10000E94B30161E08CE00E94B30161E08DE0CE
:100B20000E94B30161E08EE00E94B30161E08FE0BA
:100B30000E94B30161E080E10E94B30160E081E1C5
:100B40000E94B3018091B7018530C1F561E084E076
:100B50000E94B30160E085E00E94B30161E086E09D
:100B60000E94B30161E087E00E94B30160E088E089
:100B70000E94B30161E089E00E94B30161E08AE074
:100B80000E94B30161E08BE00E94B30161E08CE060
:100B90000E94B30161E08DE00E94B30161E08EE04C
:100BA0000E94B30161E08FE00E94B30161E080E147
:100BB0000E94B30160E081E10E94B3018091B7011E
:100BC0008630C1F561E084E00E94B30160E085E019
:100BD0000E94B30161E086E00E94B30161E087E01A
:100BE0000E94B30161E088E00E94B30161E089E006
:100BF0000E94B30161E08AE00E94B30161E08BE0F2
:100C00000E94B30161E08CE00E94B30161E08DE0DD
:100C10000E94B30161E08EE00E94B30161E08FE0C9
:100C20000E94B30161E080E10E94B30160E081E1D4
:100C30000E94B3018091B7018730C1F561E084E083
:100C40000E94B30161E085E00E94B30161E086E0AB
:100C50000E94B30160E087E00E94B30160E088E099
:100C60000E94B30160E089E00E94B30160E08AE085
:100C70000E94B30161E08BE00E94B30161E08CE06F
:100C80000E94B30161E08DE00E94B30161E08EE05B
:100C90000E94B30161E08FE00E94B30161E080E156
:100CA0000E94B30160E081E10E94B3018091B7012D
:100CB0008830C1F561E084E00E94B30161E085E025
:100CC0000E94B30161E086E00E94B30161E087E029
:100CD0000E94B30161E088E00E94B30161E089E015
:100CE0000E94B30161E08AE00E94B30161E08BE001
:100CF0000E94B30161E08CE00E94B30161E08DE0ED
:100D00000E94B30161E08EE00E94B30161E08FE0D8
:100D10000E94B30161E080E10E94B30160E081E1E3
:100D20000E94B3018091B7018930C1F561E084E090
:100D30000E94B30161E085E00E94B30161E086E0BA
:100D40000E94B30161E087E00E94B30160E088E0A7
:100D50000E94B30161E089E00E94B30161E08AE092
:100D60000E94B30161E08BE00E94B30161E08CE07E
:100D70000E94B30161E08DE00E94B30161E08EE06A
:100D80000E94B30161E08FE00E94B30161E080E165
:100D90000E94B30160E081E10E94B3018091B7013C
:100DA0008A30C1F561E084E00E94B30161E085E032
:100DB0000E94B30161E086E00E94B30161E087E038
:100DC0000E94B30161E088E00E94B30161E089E024
:100DD0000E94B30160E08AE00E94B30160E08BE012
:100DE0000E94B30161E08CE00E94B30161E08DE0FC
:100DF0000E94B30160E08EE00E94B30160E08FE0EA
:100E00000E94B30160E080E10E94B30160E081E1F3
:100E10000E94B3018091B7018B30C1F560E084E09E
:100E20000E94B30161E085E00E94B30161E086E0C9
:100E30000E94B30160E087E00E94B30160E088E0B7
:100E40000E94B30160E089E00E94B30160E08AE0A3
:100E50000E94B30160E08BE00E94B30161E08CE08E
:100E60000E94B30161E08DE00E94B30160E08EE07A
:100E70000E94B30160E08FE00E94B30160E080E176
:100E80000E94B30160E081E10E94B3018091B7014B
:100E90008C30C1F561E084E00E94B30161E085E03F
:100EA0000E94B30160E086E00E94B30161E087E048
:100EB0000E94B30161E088E00E94B30160E089E034
:100EC0000E94B30161E08AE00E94B30160E08BE020
:100ED0000E94B30161E08CE00E94B30161E08DE00B
:100EE0000E94B30160E08EE00E94B30160E08FE0F9
:100EF0000E94B30160E080E10E94B30160E081E103
:100F00000E94B3018091B7018D30C1F561E084E0AA
:100F10000E94B30161E085E00E94B30161E086E0D8
:100F20000E94B30161E087E00E94B30160E088E0C5
:100F30000E94B30160E089E00E94B30161E08AE0B1
:100F40000E94B30160E08BE00E94B30161E08CE09D
:100F50000E94B30161E08DE00E94B30160E08EE089
:100F60000E94B30160E08FE00E94B30160E080E185
:100F70000E94B30160E081E10E94B3018091B7015A
:100F80008E30C1F560E084E00E94B30161E085E04D
:100F90000E94B30161E086E00E94B30160E087E057
:100FA0000E94B30160E088E00E94B30161E089E043
:100FB0000E94B30161E08AE00E94B30160E08BE02F
:100FC0000E94B30161E08CE00E94B30161E08DE01A
:100FD0000E94B30160E08EE00E94B30160E08FE008
:100FE0000E94B30160E080E10E94B30160E081E112
:100FF0000E94B3018091B7018F30C1F561E084E0B8
:101000000E94B30160E085E00E94B30161E086E0E8
:101010000E94B30161E087E00E94B30161E088E0D3
:101020000E94B30161E089E00E94B30161E08AE0BF
:101030000E94B30160E08BE00E94B30161E08CE0AC
:101040000E94B30161E08DE00E94B30160E08EE098
:101050000E94B30160E08FE00E94B30160E080E194
:101060000E94B30160E081E10E94B3018091B70169
:101070008031C1F561E084E00E94B30160E085E069
:101080000E94B30161E086E00E94B30161E087E065
:101090000E94B30160E088E00E94B30161E089E052
:1010A0000E94B30161E08AE00E94B30160E08BE03E
:1010B0000E94B30161E08CE00E94B30161E08DE029
:1010C0000E94B30160E08EE00E94B30160E08FE017
:1010D0000E94B30160E080E10E94B30160E081E121
:1010E0000E94B3018091B7018131C1F561E084E0D4
:1010F0000E94B30161E085E00E94B30161E086E0F7
:101100000E94B30160E087E00E94B30160E088E0E4
:101110000E94B30160E089E00E94B30160E08AE0D0
:101120000E94B30160E08BE00E94B30161E08CE0BB
:101130000E94B30161E08DE00E94B30160E08EE0A7
:101140000E94B30160E08FE00E94B30160E080E1A3
:101150000E94B30160E081E10E94B3018091B70178
:101160008231C1F561E084E00E94B30161E085E075
:101170000E94B30161E086E00E94B30161E087E074
:101180000E94B30161E088E00E94B30161E089E060
:101190000E94B30161E08AE00E94B30160E08BE04D
:1011A0000E94B30161E08CE00E94B30161E08DE038
:1011B0000E94B30160E08EE00E94B30160E08FE026
:1011C0000E94B30160E080E10E94B30160E081E130
:1011D0000E94B3018091B7018331C1F561E084E0E1
:1011E0000E94B30161E085E00E94B30161E086E006
:1011F0000E94B30161E087E00E94B30160E088E0F3
:101200000E94B30161E089E00E94B30161E08AE0DD
:101210000E94B30160E08BE00E94B30161E08CE0CA
:101220000E94B30161E08DE00E94B30160E08EE0B6
:101230000E94B30160E08FE00E94B30160E080E1B2
:101240000E94B30160E081E10E94B3018091B70187
:101250008431C1F561E084E00E94B30161E085E082
:101260000E94B30161E086E00E94B30161E087E083
:101270000E94B30161E088E00E94B30161E089E06F
:101280000E94B30160E08AE00E94B30161E08BE05C
:101290000E94B30161E08CE00E94B30160E08DE048
:1012A0000E94B30161E08EE00E94B30161E08FE033
:1012B0000E94B30160E080E10E94B30161E081E13E
:1012C0000E94B3018091B7018531C1F560E084E0EF
:1012D0000E94B30161E085E00E94B30161E086E015
:1012E0000E94B30160E087E00E94B30160E088E003
:1012F0000E94B30160E089E00E94B30160E08AE0EF
:101300000E94B30161E08BE00E94B30161E08CE0D8
:101310000E94B30160E08DE00E94B30161E08EE0C5
:101320000E94B30161E08FE00E94B30160E080E1C0
:101330000E94B30161E081E10E94B3018091B70195
:101340008631C1F561E084E00E94B30161E085E08F
:101350000E94B30160E086E00E94B30161E087E093
:101360000E94B30161E088E00E94B30160E089E07F
:101370000E94B30161E08AE00E94B30161E08BE06A
:101380000E94B30161E08CE00E94B30160E08DE057
:101390000E94B30161E08EE00E94B30161E08FE042
:1013A0000E94B30160E080E10E94B30161E081E14D
:1013B0000E94B3018091B7018731C1F561E084E0FB
:1013C0000E94B30161E085E00E94B30161E086E024
:1013D0000E94B30161E087E00E94B30160E088E011
:1013E0000E94B30160E089E00E94B30161E08AE0FD
:1013F0000E94B30161E08BE00E94B30161E08CE0E8
:101400000E94B30160E08DE00E94B30161E08EE0D4
:101410000E94B30161E08FE00E94B30160E080E1CF
:101420000E94B30161E081E10E94B3018091B701A4
:101430008831C1F560E084E00E94B30161E085E09D
:101440000E94B30161E086E00E94B30160E087E0A2
:101450000E94B30160E088E00E94B30161E089E08E
:101460000E94B30161E08AE00E94B30161E08BE079
:101470000E94B30161E08CE00E94B30160E08DE066
:101480000E94B30161E08EE00E94B30161E08FE051
:101490000E94B30160E080E10E94B30161E081E15C
:1014A0000E94B3018091B7018931C1F561E084E008
:1014B0000E94B30160E085E00E94B30161E086E034
:1014C0000E94B30161E087E00E94B30160E088E020
:1014D0000E94B30161E089E00E94B30161E08AE00B
:1014E0000E94B30161E08BE00E94B30161E08CE0F7
:1014F0000E94B30160E08DE00E94B30161E08EE0E4
:101500000E94B30161E08FE00E94B30160E080E1DE
:101510000E94B30161E081E10E94B3018091B701B3
:101520008A31C1F561E084E00E94B30160E085E0AA
:101530000E94B30161E086E00E94B30161E087E0B0
:101540000E94B30161E088E00E94B30161E089E09C
:101550000E94B30161E08AE00E94B30161E08BE088
:101560000E94B30161E08CE00E94B30160E08DE075
:101570000E94B30161E08EE00E94B30161E08FE060
:101580000E94B30160E080E10E94B30161E081E16B
:101590000E94B3018091B7018B31C1F561E084E015
:1015A0000E94B30161E085E00E94B30161E086E042
:1015B0000E94B30160E087E00E94B30160E088E030
:1015C0000E94B30160E089E00E94B30160E08AE01C
:1015D0000E94B30161E08BE00E94B30161E08CE006
:1015E0000E94B30160E08DE00E94B30161E08EE0F3
:1015F0000E94B30161E08FE00E94B30160E080E1EE
:101600000E94B30161E081E10E94B3018091B701C2
:101610008C31C1F561E084E00E94B30161E085E0B6
:101620000E94B30161E086E00E94B30161E087E0BF
:101630000E94B30161E088E00E94B30161E089E0AB
:101640000E94B30161E08AE00E94B30161E08BE097
:101650000E94B30161E08CE00E94B30160E08DE084
:101660000E94B30161E08EE00E94B30161E08FE06F
:101670000E94B30160E080E10E94B30161E081E17A
:101680000E94B3018091B7018D31C1F561E084E022
:101690000E94B30161E085E00E94B30161E086E051
:1016A0000E94B30161E087E00E94B30160E088E03E
:1016B0000E94B30161E089E00E94B30161E08AE029
:1016C0000E94B30161E08BE00E94B30161E08CE015
:1016D0000E94B30160E08DE00E94B30161E08EE002
:1016E0000E94B30161E08FE00E94B30160E080E1FD
:1016F0000E94B30161E081E10E94B3018091B701D2
:101700008E31C1F561E084E00E94B30161E085E0C3
:101710000E94B30161E086E00E94B30161E087E0CE
:101720000E94B30161E088E00E94B30161E089E0BA
:101730000E94B30160E08AE00E94B30161E08BE0A7
:101740000E94B30161E08CE00E94B30161E08DE092
:101750000E94B30161E08EE00E94B30160E08FE07F
:101760000E94B30160E080E10E94B30161E081E189
:101770000E94B3018091B7018F31C1F560E084E030
:101780000E94B30161E085E00E94B30161E086E060
:101790000E94B30160E087E00E94B30160E088E04E
:1017A0000E94B30160E089E00E94B30160E08AE03A
:1017B0000E94B30161E08BE00E94B30161E08CE024
:1017C0000E94B30161E08DE00E94B30161E08EE010
:1017D0000E94B30160E08FE00E94B30160E080E10D
:1017E0000E94B30161E081E10E94B3018091B701E1
:1017F0008032C1F561E084E00E94B30161E085E0E0
:101800000E94B30160E086E00E94B30161E087E0DE
:101810000E94B30161E088E00E94B30160E089E0CA
:101820000E94B30161E08AE00E94B30161E08BE0B5
:101830000E94B30161E08CE00E94B30161E08DE0A1
:101840000E94B30161E08EE00E94B30160E08FE08E
:101850000E94B30160E080E10E94B30161E081E198
:101860000E94B3018091B7018132C1F561E084E04B
:101870000E94B30161E085E00E94B30161E086E06F
:101880000E94B30161E087E00E94B30160E088E05C
:101890000E94B30160E089E00E94B30161E08AE048
:1018A0000E94B30161E08BE00E94B30161E08CE033
:1018B0000E94B30161E08DE00E94B30161E08EE01F
:1018C0000E94B30160E08FE00E94B30160E080E11C
:1018D0000E94B30161E081E10E94B3018091B701F0
:1018E0008232C1F560E084E00E94B30161E085E0EE
:1018F0000E94B30161E086E00E94B30160E087E0EE
:101900000E94B30160E088E00E94B30161E089E0D9
:101910000E94B30161E08AE00E94B30161E08BE0C4
:101920000E94B30161E08CE00E94B30161E08DE0B0
:101930000E94B30161E08EE00E94B30160E08FE09D
:101940000E94B30160E080E10E94B30161E081E1A7
:101950000E94B3018091B7018332C1F561E084E058
:101960000E94B30160E085E00E94B30161E086E07F
:101970000E94B30161E087E00E94B30160E088E06B
:101980000E94B30161E089E00E94B30161E08AE056
:101990000E94B30161E08BE00E94B30161E08CE042
:1019A0000E94B30161E08DE00E94B30161E08EE02E
:1019B0000E94B30160E08FE00E94B30160E080E12B
:1019C0000E94B30161E081E10E94B3018091B701FF
:1019D0008432C1F561E084E00E94B30160E085E0FB
:1019E0000E94B30161E086E00E94B30161E087E0FC
:1019F0000E94B30161E088E00E94B30161E089E0E8
:101A00000E94B30161E08AE00E94B30161E08BE0D3
:101A10000E94B30161E08CE00E94B30161E08DE0BF
:101A20000E94B30161E08EE00E94B30160E08FE0AC
:101A30000E94B30160E080E10E94B30161E081E1B6
:101A40000E94B3018091B7018532C1F561E084E065
:101A50000E94B30161E085E00E94B30161E086E08D
:101A60000E94B30160E087E00E94B30160E088E07B
:101A70000E94B30160E089E00E94B30160E08AE067
:101A80000E94B30161E08BE00E94B30161E08CE051
:101A90000E94B30161E08DE00E94B30161E08EE03D
:101AA0000E94B30160E08FE00E94B30160E080E13A
:101AB0000E94B30161E081E10E94B3018091B7010E
:101AC0008632C1F561E084E00E94B30161E085E007
:101AD0000E94B30161E086E00E94B30161E087E00B
:101AE0000E94B30161E088E00E94B30161E089E0F7
:101AF0000E94B30161E08AE00E94B30161E08BE0E3
:101B00000E94B30161E08CE00E94B30161E08DE0CE
:101B10000E94B30161E08EE00E94B30160E08FE0BB
:101B20000E94B30160E080E10E94B30161E081E1C5
:101B30000E94B3018091B7018732C1F561E084E072
:101B40000E94B30161E085E00E94B30161E086E09C
:101B50000E94B30161E087E00E94B30160E088E089
:101B60000E94B30161E089E00E94B30161E08AE074
:101B70000E94B30161E08BE00E94B30161E08CE060
:101B80000E94B30161E08DE00E94B30161E08EE04C
:101B90000E94B30160E08FE00E94B30160E080E149
:101BA0000E94B30161E081E10E94B3018091B7011D
:101BB0008832C1F561E084E00E94B30161E085E014
:101BC0000E94B30161E086E00E94B30161E087E01A
:101BD0000E94B30161E088E00E94B30161E089E006
:101BE0000E94B30160E08AE00E94B30160E08BE0F4
:101BF0000E94B30161E08CE00E94B30161E08DE0DE
:101C00000E94B30160E08EE00E94B30160E08FE0CB
:101C10000E94B30161E080E10E94B30161E081E1D3
:101C20000E94B3018091B7018932C1F560E084E080
:101C30000E94B30161E085E00E94B30161E086E0AB
:101C40000E94B30160E087E00E94B30160E088E099
:101C50000E94B30160E089E00E94B30160E08AE085
:101C60000E94B30160E08BE00E94B30161E08CE070
:101C70000E94B30161E08DE00E94B30160E08EE05C
:101C80000E94B30160E08FE00E94B30161E080E157
:101C90000E94B30161E081E10E94B3018091B7012C
:101CA0008A32C1F561E084E00E94B30161E085E021
:101CB0000E94B30160E086E00E94B30161E087E02A
:101CC0000E94B30161E088E00E94B30160E089E016
:101CD0000E94B30161E08AE00E94B30160E08BE002
:101CE0000E94B30161E08CE00E94B30161E08DE0ED
:101CF0000E94B30160E08EE00E94B30160E08FE0DB
:101D00000E94B30161E080E10E94B30161E081E1E2
:101D10000E94B3018091B7018B32C1F561E084E08C
:101D20000E94B30161E085E00E94B30161E086E0BA
:101D30000E94B30161E087E00E94B30160E088E0A7
:101D40000E94B30160E089E00E94B30161E08AE093
:101D50000E94B30160E08BE00E94B30161E08CE07F
:101D60000E94B30161E08DE00E94B30160E08EE06B
:101D70000E94B30160E08FE00E94B30161E080E166
:101D80000E94B30161E081E10E94B3018091B7013B
:101D90008C32C1F560E084E00E94B30161E085E02F
:101DA0000E94B30161E086E00E94B30160E087E039
:101DB0000E94B30160E088E00E94B30161E089E025
:101DC0000E94B30161E08AE00E94B30160E08BE011
:101DD0000E94B30161E08CE00E94B30161E08DE0FC
:101DE0000E94B30160E08EE00E94B30160E08FE0EA
:101DF0000E94B30161E080E10E94B30161E081E1F2
:101E00000E94B3018091B7018D3209F064C161E095
:101E100084E00E94B30160E085E00E94B30161E0CC
:101E200086E00E94B30161E087E00E94B30160E0B8
:101E300088E00E94B30161E089E00E94B30161E0A3
:101E40008AE00E94B30160E08BE00E94B30161E090
:101E50008CE00E94B30161E08DE00E94B30160E07C
:101E60008EE00E94B30160E08FE00E94B30161E068
:101E700080E10E94B30161E081E10E94B3018091A1
:101E8000B7018E32C1F561E084E00E94B30160E0E9
:101E900085E00E94B30161E086E00E94B30161E049
:101EA00087E00E94B30161E088E00E94B30161E035
:101EB00089E00E94B30161E08AE00E94B30160E022
:101EC0008BE00E94B30161E08CE00E94B30161E00D
:101ED0008DE00E94B30160E08EE00E94B30160E0FB
:101EE0008FE00E94B30161E080E10E94B30161E0F4
:101EF00081E10E94B3018091B7018F32C1F561E0A9
:101F000084E00E94B30161E085E00E94B30161E0DA
:101F100086E00E94B30160E087E00E94B30160E0C8
:101F200088E00E94B30160E089E00E94B30160E0B4
:101F30008AE00E94B30160E08BE00E94B30161E09F
:101F40008CE00E94B30161E08DE00E94B30160E08B
:101F50008EE00E94B30160E08FE00E94B30161E077
:101F600080E10E94B30161E081E10E94B3018091B0
:101F7000B7018033C1F561E084E00E94B30161E004
:101F800085E00E94B30161E086E00E94B30161E058
:101F900087E00E94B30161E088E00E94B30161E044
:101FA00089E00E94B30161E08AE00E94B30160E031
:101FB0008BE00E94B30161E08CE00E94B30161E01C
:101FC0008DE00E94B30160E08EE00E94B30160E00A
:101FD0008FE00E94B30161E080E10E94B30161E003
:101FE00081E10E94B3018091B7018133C1F561E0C5
:101FF00084E00E94B30161E085E00E94B30161E0EA
:1020000086E00E94B30161E087E00E94B30160E0D6
:1020100088E00E94B30161E089E00E94B30161E0C1
:102020008AE00E94B30160E08BE00E94B30161E0AE
:102030008CE00E94B30161E08DE00E94B30160E09A
:102040008EE00E94B30160E08FE00E94B30161E086
:1020500080E10E94B30161E081E10E94B3018091BF
:10206000B7018233C1F561E084E00E94B30161E011
:1020700085E00E94B30161E086E00E94B30161E067
:1020800087E00E94B30161E088E00E94B30161E053
:1020900089E00E94B30160E08AE00E94B30161E040
:1020A0008BE00E94B30160E08CE00E94B30161E02C
:1020B0008DE00E94B30161E08EE00E94B30160E018
:1020C0008FE00E94B30161E080E10E94B30161E012
:1020D00081E10E94B301E114F10411F40C940504B0
:1020E0000E941001882311F40C9405040E94000042
:1020F0000C940504EAE1F1E01382128288EE93E089
:10210000A0E0B0E084839583A683B78388E091E064
:102110009183808385EC90E09587848784EC90E0C0
:102120009787868780EC90E0918B808B81EC90E0A4
:10213000938B828B82EC90E0958B848B86EC90E085
:10214000978B868B118E128E138E148E0895A1E2BA
:102150001A2EAA1BBB1BFD010DC0AA1FBB1FEE1F21
:10216000FF1FA217B307E407F50720F0A21BB30B6C
:10217000E40BF50B661F771F881F991F1A9469F7E8
:1021800060957095809590959B01AC01BD01CF0144
:102190000895EE0FFF1F0590F491E02D0994F89437
:0221A000FFCF6F
:1021A20030023002000000004601A600D300930175
:0A21B2000401E200F6000D0A00002F
:00000001FF
